:020000040800F2
:1000000000200020F91B0008110B0008170B000846
:1000100000000000000000000000000000000000E0
:100020000000000000000000000000001D0B0008A0
:100030000000000000000000270B0008310B000842
:10004000491C0008491C0008491C0008491C0008FC
:10005000491C0008491C0008491C0008491C0008EC
:1000600000000000491C0008491C0008491C000849
:10007000491C0008491C000800000000491C000839
:100080000000000000000000000000000000000070
:10009000491C000800000000491C0008491C000819
:1000A00000000000491C00080000000000000000E3
:1000B000491C0008491C0008000000000000000066
:1000C00010B5064C2378002B07D1054B002B02D02E
:1000D000044800E000BF0123237010BD0C00002085
:1000E00000000000A41C0008044B10B5002B03D036
:1000F0000349044800E000BF10BDC04600000000F6
:1001000010000020A41C0008002243088B4274D376
:1001100003098B425FD3030A8B4244D3030B8B4208
:1001200028D3030C8B420DD3FF22090212BA030C11
:100130008B4202D31212090265D0030B8B4219D3F2
:1001400000E0090AC30B8B4201D3CB03C01A524112
:10015000830B8B4201D38B03C01A5241430B8B425A
:1001600001D34B03C01A5241030B8B4201D30B0343
:10017000C01A5241C30A8B4201D3CB02C01A52416A
:10018000830A8B4201D38B02C01A5241430A8B422D
:1001900001D34B02C01A5241030A8B4201D30B0216
:1001A000C01A5241CDD2C3098B4201D3CB01C01A30
:1001B000524183098B4201D38B01C01A524143093A
:1001C0008B4201D34B01C01A524103098B4201D328
:1001D0000B01C01A5241C3088B4201D3CB00C01A95
:1001E000524183088B4201D38B00C01A524143080D
:1001F0008B4201D34B00C01A5241411A00D2014632
:10020000524110467047FFE701B5002000F006F8A4
:1002100002BDC0460029F7D076E770477047C04658
:10022000002B11D1002A0FD1002900D1002802D0C3
:100230000021C943081C07B4024802A140180290DB
:1002400003BDC046D9FFFFFF03B4684601B502985D
:1002500000F02EF8019B9E4602B00CBC7047C046D1
:10026000F0B515042D0C0F0001002E00C646844683
:100270000004140C000C090C46434D4360436143D9
:100280004019340C241800B5A54203D9802040023F
:1002900080464144250C6D18614659437A43300429
:1002A00049192404000C2018891880BCB846F0BDF8
:1002B000F0B557464E464546DE46E0B504000D0013
:1002C0009246994683B08B4230D82DD0494650464D
:1002D00000F0BAF829000600200000F0B5F8331A43
:1002E0009846203B9B4633D45A4653469340424659
:1002F0001F00534693401E00AF423AD8AF4200D190
:1003000078E05B46A41BBD41002B00DA75E00022BB
:1003100000230092019301235A4693400193012345
:1003200042469340009328E08242CFD90022002326
:10033000009201930C9B002B01D01C605D60009823
:10034000019903B0F0BCBB46B246A946A046F0BD39
:10035000424620239B1A5246DA40414613004A4641
:100360008A40170042461F43534693401E00AF4247
:10037000C4D900220023009201934346002BD9D018
:10038000FB0772081A4346467B080EE0AB4201D1D8
:10039000A2420CD8A41A9D41012024196D410021CC
:1003A000013E24184D41002E06D0AB42EED9013E4D
:1003B00024196D41002EF8D1009801995B4600196F
:1003C0006941002B24DB2B005A464446D3402A00C7
:1003D000E2401C005B461500002B2ADB26009E40F5
:1003E000330026004746BE403200801A99410090F3
:1003F00001919FE7A342BCD883E742462023002116
:100400009B1A0022009101920122DA40019286E7B4
:10041000424620239B1A2A0046469A402300F34076
:10042000444613432A00E2401C005B461500002BA3
:10043000D4DA42462F002023260097409B1ADE4044
:100440003B003343CDE7C04610B5002903D100F08F
:1004500007F8203002E0081C00F002F810BDC0468A
:100460001C2101231B04984201D3000C10391B0AE4
:10047000984201D3000A08391B09984201D30009A8
:10048000043902A2105C40187047C04604030202FF
:1004900001010101000000000000000080B500AF74
:1004A000A023DB05012252421A60A023DB050022B3
:1004B0005A61A023DA05A023DB0512681A60A02385
:1004C000DA05A023DB0512681A60A023DA05A02351
:1004D000DB0512681A60A023DA05A023DB05126889
:1004E0001A60A023DB055A69A023DB05C02109019E
:1004F0000A435A61A023DB055A69A023DB05C0210A
:1005000089000A435A61C046BD4680BD80B582B0AD
:1005100000AF0200FB1D1A70FB1D1B78002B02D0E0
:10052000012B09D011E0A023DB055A69A023DB05CC
:1005300008490A405A6108E0A023DB055A69A02354
:10054000DB0505490A405A61C046C046BD4602B0B7
:1005500080BDC046FFF7FFFFFFFBFFFF80B582B005
:1005600000AF0200FB1D1A70FB1D1B78002B02D090
:10057000012B0AD013E0A023DB055A69A023DB0579
:10058000802109010A435A6109E0A023DB055A6969
:10059000A023DB058021C9000A435A61C046C0463A
:1005A000BD4602B080BD000080B582B000AF020041
:1005B000FB1D1A70BB1D0A1C1A70A023DB055A69AB
:1005C000A023DB0516490A405A61BB1D1B781800A1
:1005D000FFF79CFFA023DB05FA1D12785A61A023C8
:1005E000DB055A69A023DB05802189000A435A6193
:1005F000022000F067F9A023DB055A69A023DB0580
:1006000008490A405A61BB1D1B781800FFF7A6FF76
:10061000022000F057F9C046BD4602B080BDC0467A
:10062000FFFEFFFFFFFDFFFF80B582B000AF0200BD
:10063000FB1D1A70A023DB055A69A023DB0580216E
:1006400049000A435A611E4B1B789B09DBB2180014
:10065000FFF75CFFA023DB05FA1D12785A61A02387
:10066000DB055A69A023DB05802189000A435A6112
:10067000022000F027F9A023DB055A69A023DB053F
:1006800010490A405A610E4B1B789B09DBB21800D7
:10069000FFF764FF0A4B1B780133DAB2084B1A707C
:1006A000074B1B785BB2002B02DA054B00221A7055
:1006B000022000F007F9C046BD4602B080BDC0462A
:1006C00028000020FFFDFFFF80B582B000AFFFF7DC
:1006D000E5FEFB1D00221A700AE0FB1D1B781900C5
:1006E0003F20FFF761FFFB1D1A78FB1D01321A70D6
:1006F000FB1D1B78012BF0D9C046C046BD4602B099
:1007000080BD000090B585B000AF0200FB1D1A70DF
:10071000BB1D0A1C1A70294BFA1D12781A70284B3F
:10072000BA1D12781A700F23FB1800221A701DE0F0
:100730000F243B191B7819004020FFF735FFBB1D24
:100740001B78482252421343DAB23B191B78190036
:100750001000FFF729FF3B191B781900C020FFF795
:1007600023FF3B191A783B1901321A700F23FB182B
:100770001B78032BDCD9FB1D1B783F221340DBB217
:1007800040221343DAB2FB1D1B789B09DBB2190030
:100790001000FFF709FFBB1D1B784822524213438C
:1007A000DAB2FB1D1B789B09DBB219001000FFF7C2
:1007B000FBFEC046BD4605B090BDC04628000020E7
:1007C0002900002080B582B000AFBB1D00221A7046
:1007D0001BE0BB1D1B7819000020FFF793FFFB1DDA
:1007E00000221A7007E00020FFF71EFFFB1D1A7899
:1007F000FB1D01321A70FB1D1B785BB2002BF2DA75
:10080000BB1D1A78BB1D01321A70BB1D1B78072B4C
:10081000DFD9C046C046BD4602B080BDB0B584B089
:1008200000AF0200FB1D1A70FB1DFA1D1278203A62
:100830001A700023FB6018E0FB1D1A7813009B0060
:100840009B181A00FB68D2180D4BD3180B257C1986
:10085000180000F02CF8030023707B191B78180097
:10086000FFF7E2FEFB680133FB60FB68042BE3DD6E
:100870000020FFF7D9FEC046BD4604B0B0BDC0465B
:10088000C81C000880B582B000AF786006E07B68C5
:100890005A1C7A601B781800FFF7C0FF7B681B7832
:1008A000002BF4D1C046C046BD4602B080BD80B525
:1008B00082B000AF78607B681B781800BD4602B03C
:1008C00080BD000080B584B000AF78600D4B9B68A0
:1008D000FB600D4B1B680D491800FFF715FC03006A
:1008E0001A007B685343BB60C046064B9B68FA689E
:1008F000D31ABA689A42F8D8C046C046BD4604B07A
:1009000080BDC04610E000E00000002040420F0023
:1009100080B500AF00F018F900F024F800F076F888
:10092000642000F081F9FFF7CFFE642000F07CF92D
:10093000FFF748FF00210020FFF7E4FE074B1800F7
:10094000FFF7A0FF064B0821180000F0D0FBFA23A8
:100950009B00180000F068F9ECE7C046BC1C0008DA
:100960000004005090B593B000AF14243B19180058
:1009700034231A00002101F08DF93B0018001423E4
:100980001A00002101F086F91E4B1B681E4A1A400E
:100990001C4B802109010A431A6021007B18102298
:1009A0001A607B1801229A617B180022DA617B1899
:1009B000A02212021A627B1800225A627B181800C9
:1009C00000F0B0FB031E01D000F088F83B000F22BE
:1009D0001A603B0000225A603B0000229A603B00F4
:1009E0000022DA603B0000221A613B00002118005F
:1009F00000F014FF031E01D000F070F8C046BD46A1
:100A000013B090BD00700040FFE7FFFF90B589B0C4
:100A100000AF0C243B19180014231A00002101F028
:100A200039F92B4BDA6A2A4B01210A43DA62284B47
:100A3000DB6A01221340BB60BB68254BDA6A244B9A
:100A400002210A43DA62224BDB6A022213407B60F6
:100A50007B682049A023DB050022180000F02AFB58
:100A60001D4B00220B21180000F024FB3B19194AF2
:100A70001A603B1901225A603B1900229A603B1907
:100A80000022DA603A19A023DB051100180000F0FB
:100A9000A3F921007B180B221A607B1801225A60EF
:100AA0007B1800229A607B180022DA607B180A4AC1
:100AB0001900100000F090F9A023DB050022FF21AF
:100AC000180000F0F7FAC046BD4609B090BDC04618
:100AD00000100240FF1F00000004005080B500AF6E
:100AE00072B6C046FEE7000080B500AF074B5A6BF8
:100AF000064B01210A435A63044B9A6B034B802136
:100B000049050A439A63C046BD4680BD00100240B5
:100B100080B500AFFEE780B500AFFEE780B500AF5F
:100B2000C046BD4680BD80B500AFC046BD4680BD55
:100B300080B500AF00F05CF8C046BD4680BD80B512
:100B400000AFC046BD4680BD80B582B000AFFB1D82
:100B500000221A700B4B1A680A4B40210A431A6094
:100B6000002000F011F8031E03D0FB1D01221A70B3
:100B700001E0FFF7B9FFFB1D1B781800BD4602B06E
:100B800080BDC0460020024090B583B000AF7860C1
:100B9000144B1C68144B1B781900FA239800FFF7BC
:100BA000B3FA030019002000FFF7AEFA03001800A3
:100BB00000F005F9031E01D001230FE07B68032B31
:100BC0000BD8796801235B420022180000F0E2F89C
:100BD000064B7A681A60002300E001231800BD4626
:100BE00003B090BD00000020080000200400002099
:100BF00080B500AF054B1B781A00054B1B68D21857
:100C0000034B1A60C046BD4680BDC04608000020A8
:100C10002C00002080B500AF024B1B681800BD46B9
:100C200080BDC0462C00002080B584B000AF786045
:100C3000FFF7F0FF0300BB607B68FB60FB680133DC
:100C400005D00A4B1B781A00FB689B18FB60C04656
:100C5000FFF7E0FF0200BB68D31AFA689A42F7D8A0
:100C6000C046C046BD4604B080BDC0460800002056
:100C700090B583B000AF02003960FB1D1A70FB1DF8
:100C80001B787F2B28D82F4AFB1D1B785BB29B0853
:100C9000C0339B009B58FA1D1278110003220A40B2
:100CA000D200FF2191400A00D2431A4011003B6854
:100CB0009B01FF221A40FB1D1B78180003230340F1
:100CC000DB009A401F48FB1D1B785BB29B080A4360
:100CD000C0339B001A5031E01B4AFB1D1B781900E2
:100CE0000F230B40083B9B0806339B00D3180433AB
:100CF0001B68FA1D1278110003220A40D200FF215E
:100D000091400A00D2431A4011003B689B01FF2228
:100D10001A40FB1D1B78180003230340DB009A4098
:100D20000948FB1D1B781C000F232340083B9B0830
:100D30000A4306339B00C31804331A60C046BD46FD
:100D400003B090BD00E100E000ED00E080B582B0AE
:100D500000AF78607B685A1E80235B049A4201D3FF
:100D6000012310E00A4B7A68013A5A6001235B4282
:100D700003211800FFF77CFF054B00229A60044B0B
:100D800007221A6000231800BD4602B080BDC0468D
:100D900010E000E080B584B000AFB9607A600F2148
:100DA0007B18021C1A70BA687B181B785BB21100A2
:100DB0001800FFF75DFFC046BD4604B080BD80B59A
:100DC00082B000AF78607B681800FFF7BFFF0300B8
:100DD0001800BD4602B080BD80B586B000AF786017
:100DE000396000237B610023FB6000233B6149E104
:100DF0003B681B6801217A6991400A001340FB603F
:100E0000FB68002B00D13AE13B685B68012B0BD0FB
:100E10003B685B68022B07D03B685B68112B03D0F3
:100E20003B685B68122B30D17B689B683B617B69B8
:100E30005B0003229A401300DA433B6913403B6195
:100E40003B68DA687B695B009A4013003A69134398
:100E50003B617B683A699A607B685B683B61012211
:100E60007B699A401300DA433B6913403B613B685E
:100E70005B681B0901221A407B699A4013003A699A
:100E800013433B617B683A695A607B68DB683B616E
:100E90007B695B0003229A401300DA433B691340ED
:100EA0003B613B689A687B695B009A4013003A6932
:100EB00013433B617B683A69DA603B685B68022BED
:100EC00003D03B685B68122B23D17B69DA087B680F
:100ED00008329200D3583B617B69072213409B0084
:100EE0000F229A401300DA433B6913403B613B6891
:100EF0001A697B6907210B409B009A4013003A69ED
:100F000013433B617B69DA087B68083292003969D8
:100F1000D1507B681B683B617B695B0003229A4070
:100F20001300DA433B6913403B613B685B68032273
:100F30001A407B695B009A4013003A6913433B6196
:100F40007B683A691A603B685A6880235B051340E6
:100F500000D194E0514B5A6B504B01210A435A6324
:100F60004F4A7B699B0802339B009B583B617B691E
:100F7000032213409B000F229A401300DA433B697F
:100F800013403B617A68A023DB059A4213D07B684B
:100F9000444A93420DD07B68434A934207D07B6812
:100FA000424A934201D1052306E0062304E00223CE
:100FB00002E0012300E000237A6903210A40920045
:100FC00093403A6913433B6135497B699B0802337F
:100FD0009B003A695A50364B1B683B61FB68DA4309
:100FE0003B6913403B613B685A6880235B021340B6
:100FF00003D03A69FB6813433B612D4B3A691A6091
:101000002B4B5B683B61FB68DA433B6913403B61F8
:101010003B685A6880239B02134003D03A69FB68FF
:1010200013433B61224B3A695A60214B9B683B61F9
:10103000FB68DA433B6913403B613B685A68802395
:101040005B03134003D03A69FB6813433B61184BC1
:101050003A699A60164BDB683B61FB68DA433B698F
:1010600013403B613B685A6880239B03134003D0C5
:101070003A69FB6813433B610D4B3A69DA607B695F
:1010800001337B613B681A687B69DA40131E00D02C
:10109000AEE6C046C046BD4606B080BD0010024068
:1010A000000001400004005000080050001C0050E7
:1010B0000004014080B582B000AF786008001100E4
:1010C000BB1C021C1A807B1C0A1C1A707B1C1B7820
:1010D000002B04D0BB1C1A887B689A6103E0BB1C00
:1010E0001A887B689A62C046BD4602B080BD80B552
:1010F00084B000AF78600A00BB1C1A807B685B6913
:10110000FB60BB1C1B88FA6813401A04FB68DB43B6
:10111000B91C09880B401A437B689A61C046BD46DA
:1011200004B080BDB0B58AB000AF78607B68002B9A
:1011300002D1012300F06CFBC84BDB680C2213408A
:10114000FB61C64BDA6880235B021340BB617B689E
:101150001B680122134000D17DE0FB69082B07D0FA
:10116000FB690C2B12D1BA6980235B029A420DD124
:10117000BA4B1A6880239B02134000D16AE07B6857
:101180005B68002B66D1012300F042FB7B685A6844
:1011900080235B029A4207D1B04B1A68AF4B802183
:1011A00049020A431A6027E07B685A68A023DB02E1
:1011B0009A420ED1A94B1A68A84B8021C9020A4352
:1011C0001A60A64B1A68A54B802149020A431A608F
:1011D00012E0A24B1A68A14BA1490A401A609F4B2A
:1011E0001A6880235B021340FB60FB689B4B1A6804
:1011F0009A4B9C490A401A607B685B68002B14D0AC
:10120000FFF708FD03007B6108E0FFF703FD020024
:101210007B69D31A642B01D90323F9E28F4B1A6837
:1012200080239B021340F0D015E0FFF7F3FC03008E
:101230007B6108E0FFF7EEFC02007B69D31A642BA8
:1012400001D90323E4E2854B1A6880239B021340F3
:10125000F0D100E0C0467B681B680222134000D139
:1012600099E07B68DB687B627B6A2022134009D0AF
:101270007A4B1A68794B20210A431A607B6A202234
:1012800093437B62FB69042B05D0FB690C2B3ED199
:10129000BB69002B3BD1714B1B680422134004D067
:1012A0007B6A002B01D10123B2E26C4B5B686E4A72
:1012B000134019007B681B691A02684B0A435A6085
:1012C000664B1B68092293431900644B7A6A0A43F0
:1012D0001A6000F0EBFB0100604BDB681B090F227A
:1012E0001340624AD35C0A00DA40614B1A60614BDA
:1012F0001B6813257C191800FFF746FC03002370B8
:101300007B191B78002B46D07B191B7880E27B6A07
:10131000002B27D0514B1B680922934319004F4BD8
:101320007A6A0A431A60FFF775FC03007B6108E0E4
:10133000FFF770FC02007B69D31A022B01D903234B
:1013400066E2464B1B6804221340F1D0434B5B68B6
:10135000454A134019007B681B691A023F4B0A4338
:101360005A6018E03D4B1A683C4B01218A431A60D1
:10137000FFF750FC03007B6108E0FFF74BFC020025
:101380007B69D31A022B01D9032341E2334B1B683B
:1013900004221340F1D17B681B681022134000D156
:1013A000A1E0FB69002B40D12C4B1A6880239B00E5
:1013B000134005D07B689B69002B01D1012327E2F4
:1013C000264B5B682C4A134019007B681A6A234B32
:1013D0000A435A60214B5B681B02190A7B68DB6970
:1013E0001A061E4B0A435A607B681B6A5B0B01336B
:1013F000802212029A40194BDB681B090F210B4017
:101400001A49CB5CDA401A4B1A601A4B1B68132539
:101410007C191800FFF7B8FB030023707B191B78B9
:10142000002B60D07B191B78F2E17B689B69002B55
:101430003FD00A4B1A68094B802149000A431A60C1
:10144000FFF7E8FB03007B6118E0FFF7E3FB020016
:101450007B69D31A022B11D90323D9E10010024072
:10146000FFFFFEFFFFFFFBFFFFE0FFFFA81E0008DE
:101470000000002004000020FF1FFFFFC94B1A6876
:1014800080239B001340E0D0C64B5B68C64A1340E4
:1014900019007B681A6AC34B0A435A60C14B5B68E8
:1014A0001B02190A7B68DB691A06BE4B0A435A60A5
:1014B00019E0BC4B1A68BB4BBC490A401A60FFF7E5
:1014C000A9FB03007B6108E0FFF7A4FB02007B6936
:1014D000D31A022B01D903239AE1B24B1A68802355
:1014E0009B001340F0D17B681B680822134036D064
:1014F0007B685B69002B19D0AA4B1A6DA94B01219F
:101500000A431A65FFF786FB03007B6108E0FFF7DB
:1015100081FB02007B69D31A022B01D9032377E1F7
:10152000A04B1B6D02221340F1D018E09D4B1A6DA9
:101530009C4B01218A431A65FFF76CFB03007B611A
:1015400008E0FFF767FB02007B69D31A022B01D981
:1015500003235DE1934B1B6D02221340F1D17B68A5
:101560001B680422134000D1AEE023203B18002268
:101570001A708C4B9A6B80235B05134009D1894B01
:101580009A6B884B802149050A439A633B180122D4
:101590001A70874B1A6880235B0013401AD1844B62
:1015A0001A68834B802149000A431A60FFF732FB17
:1015B00003007B6108E0FFF72DFB02007B69D31A73
:1015C000642B01D9032323E1794B1A6880235B0044
:1015D0001340F0D07B689A6880235B009A4207D161
:1015E000704B1A6D6F4B802149000A431A6531E038
:1015F0007B689B68002B0CD16A4B1A6D694B6B4959
:101600000A401A65674B1A6D664B6A490A401A65AB
:1016100020E07B689A68A023DB009A420ED1614BE0
:101620001A6D604B8021C9000A431A655D4B1A6D23
:101630005C4B802149000A431A650BE0594B1A6D37
:10164000584B5A490A401A65564B1A6D554B594921
:101650000A401A657B689B68002B15D0FFF7DAFA01
:1016600003007B6109E0FFF7D5FA02007B69D31A1A
:10167000514A934201D90323CAE04A4B1A6D802391
:101680009B001340EFD014E0FFF7C4FA03007B6126
:1016900009E0FFF7BFFA02007B69D31A464A93427A
:1016A00001D90323B4E03F4B1A6D80239B00134004
:1016B000EFD12323FB181B78012B05D1394B9A6BF3
:1016C000384B3E490A409A637B685B6A002B00D125
:1016D0009DE0FB690C2B00D176E07B685B6A022BF6
:1016E00045D1304B1A682F4B35490A401A60FFF735
:1016F00091FA03007B6108E0FFF78CFA02007B6936
:10170000D31A022B01D9032382E0264B1A688023C7
:101710009B041340F0D1234BDB682A4A1340190085
:101720007B689A6A7B68DB6A1A437B681B6B1A4387
:101730001C4B0A43DA601B4B1A681A4B8021490480
:101740000A431A60FFF766FA03007B6108E0FFF7BF
:1017500061FA02007B69D31A022B01D9032357E0F7
:10176000104B1A6880239B041340F0D04FE00D4BC0
:101770001A680C4B12490A401A60FFF74BFA030033
:101780007B6108E0FFF746FA02007B69D31A022B5F
:1017900001D903233CE0034B1A6880239B041340C8
:1017A000F0D134E000100240FF1FFFFFFFFEFFFFFB
:1017B00000700040FFFBFFFF88130000FFFFFFEFFA
:1017C000FFFFFFFEFFFF02FF7B685B6A012B01D179
:1017D00001231DE0104BDB68BB61BA6980235B020B
:1017E0001A407B689B6A9A420FD1BA69F0239B0327
:1017F0001A407B68DB6A9A4207D1BA69C0231B048E
:101800001A407B681B6B9A4201D0012300E0002341
:101810001800BD460AB0B0BD00100240B0B584B09B
:1018200000AF786039607B68002B01D1012328E18B
:10183000964B1B68012213403A689A421ED9934B7B
:101840001B68012293431900904B3A680A431A60BF
:10185000FFF7E0F90300FB6009E0FFF7DBF90200A6
:10186000FB68D31A8A4A934201D9032309E1874BC3
:101870001B68012213403A689A42EED17B681B68CC
:101880000222134009D0834BDB68F02293431900F6
:101890007B689A687F4B0A43DA607B681B68012289
:1018A000134000D189E07B685B68022B07D1794B3C
:1018B0001A6880239B02134020D10123E1E07B685A
:1018C0005B68032B07D1734B1A6880239B0413407A
:1018D00014D10123D5E07B685B68012B06D16D4BE9
:1018E0001B680422134009D10123CAE0694B1A681E
:1018F00080239B00134001D10123C2E0654BDB68CC
:101900000322934319007B685A68624B0A43DA60EA
:10191000FFF780F90300FB607B685B68022B11D145
:1019200009E0FFF777F90200FB68D31A584A93429F
:1019300001D90323A5E0574BDB680C221340082B89
:10194000EFD13AE07B685B68032B11D109E0FFF728
:1019500061F90200FB68D31A4D4A934201D903236F
:101960008FE04C4BDB680C2213400C2BEFD124E0B2
:101970007B685B68012B1BD109E0FFF74BF9020084
:10198000FB68D31A424A934201D9032379E0414BC1
:10199000DB680C221340042BEFD10EE0FFF73AF97D
:1019A0000200FB68D31A3A4A934201D9032368E044
:1019B000384BDB680C221340F0D1344B1B680122FA
:1019C00013403A689A421ED2304B1B68012293435F
:1019D00019002E4B3A680A431A60FFF71BF90300FF
:1019E000FB6009E0FFF716F90200FB68D31A284AEA
:1019F000934201D9032344E0244B1B680122134086
:101A00003A689A42EED17B681B680422134009D0E1
:101A1000204BDB68204A134019007B68DA681D4BB5
:101A20000A43DA607B681B68082213400AD0194B0E
:101A3000DB681A4A134019007B681B69DA00154BF2
:101A40000A43DA6000F032F80100124BDB681B0930
:101A50000F221340124AD35C0A00DA40114B1A607D
:101A6000114B1B680B257C191800FFF78DF803003C
:101A700023707B191B78002B02D07B191B7800E0A8
:101A800000231800BD4604B0B0BDC046002002408F
:101A90008813000000100240FFF8FFFFFFC7FFFFA0
:101AA000A81E00080000002004000020B0B58EB081
:101AB00000AF4C4BDB68FB62FA6A0C2313400C2B23
:101AC00014D000D97BE0042B02D0082B0BD076E099
:101AD000444B1B681022134002D0434B3B637CE015
:101AE000424B3B6379E0424B3B6376E0FB6A9A0CE6
:101AF0000F231A403F4B9B5CBB62FB6A9A0D03238A
:101B0000134001337B62374BDA6880235B0213405A
:101B10001AD0BB6ABB610023FB61354A0023B86958
:101B2000F969FEF79DFB02000B00100019007B6AAB
:101B30003B6100237B613A697B69FEF771FB020020
:101B40000B0013007B6337E0264B1B681022134009
:101B50001AD0BB6ABB600023FB60234A0023B8682D
:101B6000F968FEF77DFB02000B00100019007B6A8C
:101B70003B6000237B603A687B68FEF751FB020004
:101B80000B0013007B6317E0BB6A180000231900E9
:101B9000164A0023FEF764FB02000B001000190038
:101BA0007B6A1C0000231D0022002B00FEF738FB7F
:101BB00002000B0013007B637B6B3B630DE0094B62
:101BC0005B685B0B072213403B623B6A0133802258
:101BD00012029A4013003B63C0463B6B1800BD469F
:101BE0000EB0B0BD0010024000093D000024F4001A
:101BF00000127A00B81E00080D4885460D480E49AF
:101C00000E4A002302E0D458C4500433C4188C4256
:101C1000F9D30B4A0B4C002301E013600432A242BB
:101C2000FBD3FEF78CFF00F011F8FEF771FEFEE724
:101C300000200020000000200C000020D41E00081E
:101C40000C00002030000020FEE7000070B50026E8
:101C50000C4D0D4C641BA410A64209D1002600F0C7
:101C600021F80A4D0A4C641BA410A64205D170BD90
:101C7000B300EB5898470136EEE7B300EB589847AE
:101C80000136F2E7CC1E0008CC1E0008CC1E00086E
:101C9000D01E000803008218934200D170471970CB
:101CA0000133F9E7F8B5C046F8BC08BC9E4670475A
:0C1CB000F8B5C046F8BC08BC9E46704762
:101CBC0048656C6C6F20576F726C640000000000FC
:101CCC000000005F00000007000700147F147F1461
:101CDC00242A7F2A122313086462364955225000A5
:101CEC0005030000001C2241000041221C00082AB0
:101CFC001C2A0808083E0808005030000008080894
:101D0C000808003030000020100804023E514945FC
:101D1C003E00427F400042615149462141454B31D2
:101D2C001814127F1027454545393C4A4949300162
:101D3C00710905033649494936064949291E0036B9
:101D4C00360000005636000000081422411414140A
:101D5C001414412214080002015109063249794138
:101D6C003E7E1111117E7F494949363E4141412247
:101D7C007F4141221C7F494949417F090901013EAC
:101D8C00414151327F0808087F00417F41002040CB
:101D9C00413F017F081422417F404040407F0204B4
:101DAC00027F7F0408107F3E4141413E7F090909B3
:101DBC00063E4151215E7F09192946464949493160
:101DCC0001017F01013F4040403F1F2040201F7F09
:101DDC002018207F631408146303047804036151F2
:101DEC0049454300007F4141020408102041417FD6
:101DFC000000040201020440404040400001020483
:101E0C000020545454787F48444438384444442087
:101E1C00384444487F3854545418087E0901020849
:101E2C001454543C7F0804047800447D4000204046
:101E3C00443D00007F10284400417F40007C041882
:101E4C0004787C0804047838444444387C14141412
:101E5C0008081414187C7C080404084854545420B2
:101E6C00043F4440203C4040207C1C2040201C3C33
:101E7C004030403C44281028440C5050503C4464A2
:101E8C00544C44000836410000007F0000004136ED
:101E9C00080008082A1C08081C2A08080000000072
:101EAC0000000000010203040607080903040608E9
:081EBC000C101820300000009A
:081EC400ECE3FF7F01000000C8
:041ECC00E900000821
:041ED000C100000845
:0C1ED400000020000400000001000000DD
:0400000508001BF9DB
:00000001FF
